:030000000204F106
:03000B000204E507
:03002B0002048B41
:10002E00C0E0C0D0C000C001C002E4F53CF53DF513
:10003E003EF53FF5407A20E533A2E779047830E6C5
:10004E0033F608D9FA7905783CE636D4F608D9F9AC
:10005E00DAE5D002D001D000D0D0D0E022C0E0C08E
:10006E00D0C000C001C002E4F53CF53DF53EF53FC1
:10007E00F5407A20E533A2E779047830E633F608C6
:10008E00D9FA7905783CC0D0E6243320E70224D093
:10009E0020E30224FDD0D033F608D9EADAD6D00216
:1000AE00D001D000D0D0D0E022C0E0C0D0C000C07F
:1000BE0001C0027A207905C37840E613C0D030E73C
:1000CE000224D030E30224FDF618D0D0D9EC790406
:1000DE007833E613F618D9FADADBD002D001D00065
:1000EE00D0D0D0E022C0E0C0D0E5302534F530E5E8
:1000FE00313535F531E5323536F532E5333537F50F
:10010E0033D0D0D0E022C0E0C0D0C3E5309534F576
:10011E0030E5319535F531E5329536F532E53395E5
:10012E0037F533D0D0D0E022C0E0C0D0C3E5309553
:10013E0034E5319535E5329536E53395379200D075
:10014E00D0D0E022C0E0C0D0C3E5349530E535957F
:10015E0031E5369532E53795339200D0D0D0E02296
:10016E00C0E0C0D0C200C3E53495307014E53595BB
:10017E0031700EE53695327008E53795337002D240
:10018E0000D0D0D0E02212016E20000302015222D4
:10019E0012016E20000302013622C0E0C0F0C0D072
:1001AE00C000C001C002C003E5308534F0A4F8A938
:1001BE00F0E5318534F0A429F9E435F0FAE530851F
:1001CE0035F0A429F9E5F03AFAE433FBE53285344B
:1001DE00F0A42AFAE5F03BFBE5318535F0A42AFAC6
:1001EE00E5F03BFBE5308536F0A42AFAE5F03BFB63
:1001FE00E5338534F0A42BFBE5328535F0A42BFBDB
:10020E00E5318536F0A42BFBE5308537F0A42BFBCA
:10021E008B338A3289318830D003D002D001D0009E
:10022E00D0D0D0F0D0E022C0E0C0D0C000C001C01D
:10023E0002C003C0047C20E4F8F9FAFBC3E53033B6
:10024E00F530E53133F531E53233F532E53333F55B
:10025E0033E833F8E933F9EA33FAEB33FBC3E895C5
:10026E0034E99535EA9536EB95374013E89534F831
:10027E00E99535F9EA9536FAEB9537FB433001DC13
:10028E00BBD004D003D002D001D000D0D0D0E02219
:10029E0085303485313585323685333722E530C5A4
:1002AE0034F530E531C535F531E532C536F532E593
:0602BE0033C537F53322C1
:1002C400C00078B10000D8FCD00022C000C0017981
:1002D4002D78A6D8FED9FADAF6D001D00022D2B30E
:1002E4001202C4C2B322A2E792B7A2E692B6A2E572
:1002F40092B5A2E492B41202E21202C4A2E392B74B
:10030400A2E292B6A2E192B5A2E092B41202E22273
:10031400D2B20202EAC2B20202EAC2B374331203D4
:10032400197433120319743212031974281203193D
:10033400740C1203197401120319C0027A02120216
:10034400CFD00222E4936006120314A380F6224461
:10035400404480020319C0E0E8C4540F443012033F
:0C03640014E8540F4430120314D0E022BF
:1003700050312020202020202020202020205032FA
:10038000003030202020202020202020202030304D
:1003900000506C6179657220313A2000506C6179AF
:1003A000657220323A2000436F6E67726174756C1B
:1003B0006174696F6E732000506C617965723120D1
:1003C00077696E732120202000506C61796572324C
:1003D0002077696E732120202000202020202052C9
:1003E000656164793F2020202020002020202020EB
:1003F000202033202020202020202000202020200A
:1004000020202032202020202020202000202020FA
:1004100020202020312020202020202020002020EB
:1004200020202020476F2120202020202020002075
:100430002020506C617920416761696E3F20200067
:1004400020202050726573732052657365742020DC
:1004500000C000A84012035AD000C000A83F1203F9
:100460005AD000C000A83E12035AD000C000A83DD8
:1004700012035AD000C000A83C12035AD0002275C3
:10048000C80075CB0075CA00D2AD22C2CFC0E0054E
:1004900041E54170020542D0E032E58954F0440163
:1004A000F589758CA9758A9A75F4A975F29AD2A9FD
:1004B000D28C22E58954F04401F589758CEA758A5D
:1004C000E875F4EA75F2E8D2A9D28C22E58954F0F5
:1004D0004401F589758CFE758AAF75F4FE75F2AF2F
:1004E000D2A9D28C22B2913212047F12031ED2AF53
:1004F0002275817F1204E8D280754700754800C0DC
:10050000E0740114120355D0E0C083C082C0E090B3
:100510000370120348D0E0D082D08312049A1204F0
:100520007F85CD4375440175458785CC461208D338
:10053000C2CA75CC0075CD00754100754200C2CFAE
:10054000D2CA12055212055C1205781205811205F5
:10055000AD22E54254FE70362080F722E54254FE7B
:10056000702C3080F7C2CA75CC0075CD0075410083
:10057000754200C2CFD2CA22E54254FE70102080DC
:10058000F7E54254FE70073080F7C2CA801FC0E012
:10059000740114120353D0E0C083C082C0E0900302
:1005A00081120348D0E0D082D083020530E5CC45EB
:1005B000CD4541454260D71209A522C2CA75CC007B
:1005C00075CD00754100754200C2CFD2CA1205DD5B
:1005D0001205E712060312060C12061C22E542540D
:1005E000FE70AB20A1F722E54254FE702C30A1F73B
:1005F000C2CA75CC0075CD00754100754200C2CFEE
:10060000D2CA22E54254FE701020A1F7E54254FE02
:10061000700730A1F7C2CA800302058EE5CC45CD34
:100620004541454260F31209A5221205307534E0B8
:1006300075355775360E75370012015220000122AC
:10064000C200E4C0E0740114120353D0E0E5472473
:1006500001D4F547C000A84712035AD0001208F190
:100660000209D0C2001205BB7534D075353075361D
:100670000E75370012015220000122C200E4C0E0D2
:10068000740F14120353D0E0E5482401D4F548C098
:1006900000A84812035AD0001209100209D002051E
:1006A00030C200120530C0E0740114120353D0E0D0
:1006B000C000A84712035AD0007534E0753557754D
:1006C000360E75370012015220000122C200E547A4
:1006D0002499D4F547C0E0740114120353D0E0C04C
:1006E00000A84712035AD0000209D0C2001205BB6D
:1006F000C0E0740F14120353D0E0C000A8481203E6
:100700005AD0007534D075353075360E75370012F5
:10071000015220000122C200E5482499D4F548C0C6
:10072000E0740F14120353D0E0C000A84812035A1B
:10073000D0000209D0854330854431854532854655
:10074000337534FD7535437536037537001201A8CE
:100750007534C375359E7536267537001200F385DE
:10076000304385314485324585334622120735C0F2
:1007700002AA431202CFD0021206A11206EBC00257
:10078000AA441202CFD0021206A11206EBC002AA9E
:10079000451202CFD0021206A11206EBC002AA46F1
:1007A0001202CFD0021206A11206EBC002AA431217
:1007B00002CFD0021206A11206EBC002AA44120216
:1007C000CFD0021206A11206EBC002AA451202CF38
:1007D000D0021206A11206EBC002AA461202CFD026
:1007E000021206A11206EBC002AA431202CFD002E7
:1007F0001206A11206EBC002AA441202CFD00212C6
:1008000006A11206EBC002AA451202CFD0021206C0
:10081000A11206EBC002AA461202CFD0021206A114
:100820001206EBC002AA431202CFD0021206A11296
:1008300006EBC002AA441202CFD0021206A1120691
:10084000EBC002AA451202CFD0021206A11206EB9B
:10085000C002AA461202CFD0021206A11206EB2253
:10086000C0027AFF1202CFD00212062A120663C01B
:10087000027AFF1202CFD00212062A120663C002C9
:100880007AFF1202CFD00212062A120663C0027A41
:10089000FF1202CFD00212062A120663C0027AFFAC
:1008A0001202CFD00212062A120663C0027AFF1289
:1008B00002CFD00212062A120663C0027AFF120289
:1008C000CFD00212062A120663C0027AFF1202CFAC
:1008D000D0022212053012049A12076C120530124F
:1008E00004B312053012086012053012049A02088F
:1008F000D385473075310075320075330075340586
:1009000075350075360075370012016E2000202203
:1009100085483075310075320075330075340575C2
:10092000350075360075370012016E20003C22C07C
:10093000E0740114120355D0E0C083C082C0E0907F
:1009400003A7120348D0E0D082D083C0E074011422
:10095000120353D0E0C083C082C0E09003B81203FA
:1009600048D0E0D082D083120B7AC0E07401141218
:100970000355D0E0C083C082C0E09003A7120348B3
:10098000D0E0D082D083C0E0740114120353D0E0D1
:10099000C083C082C0E09003C9120348D0E0D08277
:1009A000D083120B7A85CC3085CD3185413285429A
:1009B0003375342D7535007536007537001201A872
:1009C00075340A7535007536007537001201A82296
:1009D0001204CCC0027AFF1202CFD002C0027AFF0A
:1009E0001202CFD002C0027AFF1202CFD002C002A0
:1009F0007AFF1202CFD002C0027AFF1202CFD002D9
:100A0000C0027AFF1202CFD002C0027AFF1202CFD8
:100A1000D002C0027AFF1202CFD002C0E0740114EB
:100A2000120355D0E0C083C082C0E09003DA120305
:100A300048D0E0D082D083C0027AFF1202CFD00229
:100A4000C0027AFF1202CFD002C0027AFF1202CF98
:100A5000D002C0027AFF1202CFD002C0E0740114AB
:100A6000120355D0E0C083C082C0E09003EB1203B4
:100A700048D0E0D082D083C0027AFF1202CFD002E9
:100A8000C0027AFF1202CFD002C0027AFF1202CF58
:100A9000D002C0027AFF1202CFD002C0E07401146B
:100AA000120355D0E0C083C082C0E09003FC120363
:100AB00048D0E0D082D083C0027AFF1202CFD002A9
:100AC000C0027AFF1202CFD002C0027AFF1202CF18
:100AD000D002C0027AFF1202CFD002C0E07401142B
:100AE000120355D0E0C083C082C0E090040D120311
:100AF00048D0E0D082D083C0027AFF1202CFD00269
:100B0000C0027AFF1202CFD002C0027AFF1202CFD7
:100B1000D002C0027AFF1202CFD002C0E0740114EA
:100B2000120355D0E0C083C082C0E090041E1203BF
:100B300048D0E0D082D083C0027AFF1202CFD00228
:100B4000C0027AFF1202CFD002C0027AFF1202CF97
:100B5000D002C0027AFF1202CFD002C0E0740114AA
:100B6000120355D0E0C083C082C0E090037012032E
:100B700048D0E0D082D0830208D31204CCC0027ADD
:100B8000FF1202CFD002C0027AFF1202CFD002C001
:100B9000027AFF1202CFD002C0027AFF1202CFD037
:100BA00002C0027AFF1202CFD002C0027AFF120204
:100BB000CFD002C0027AFF1202CFD002C0027AFF69
:100BC0001202CFD002C0E0740114120355D0E0C06D
:100BD00083C082C0E090042F120348D0E0D082D0BE
:100BE00083C0E0740114120353D0E0C083C082C0FC
:100BF000E0900440120348D0E0D082D083020B7A08
:00000001FF
