:030000000205896D
:03000B0002057B70
:03002B00020521AA
:10002E00C0E0C0D0C000C001C002E4F53CF53DF513
:10003E003EF53FF5407A20E533A2E779047830E6C5
:10004E0033F608D9FA7905783CE636D4F608D9F9AC
:10005E00DAE5D002D001D000D0D0D0E022C0E0C08E
:10006E00D0C000C001C002E4F53CF53DF53EF53FC1
:10007E00F5407A20E533A2E779047830E633F608C6
:10008E00D9FA7905783CC0D0E6243320E70224D093
:10009E0020E30224FDD0D033F608D9EADAD6D00216
:1000AE00D001D000D0D0D0E022C0E0C0D0C000C07F
:1000BE0001C0027A207905C37840E613C0D030E73C
:1000CE000224D030E30224FDF618D0D0D9EC790406
:1000DE007833E613F618D9FADADBD002D001D00065
:1000EE00D0D0D0E022C0E0C0D0E5302534F530E5E8
:1000FE00313535F531E5323536F532E5333537F50F
:10010E0033D0D0D0E022C0E0C0D0C3E5309534F576
:10011E0030E5319535F531E5329536F532E53395E5
:10012E0037F533D0D0D0E022C0E0C0D0C3E5309553
:10013E0034E5319535E5329536E53395379200D075
:10014E00D0D0E022C0E0C0D0C3E5349530E535957F
:10015E0031E5369532E53795339200D0D0D0E02296
:10016E00C0E0C0D0C200C3E53495307014E53595BB
:10017E0031700EE53695327008E53795337002D240
:10018E0000D0D0D0E02212016E20000302015222D4
:10019E0012016E20000302013622C0E0C0F0C0D072
:1001AE00C000C001C002C003E5308534F0A4F8A938
:1001BE00F0E5318534F0A429F9E435F0FAE530851F
:1001CE0035F0A429F9E5F03AFAE433FBE53285344B
:1001DE00F0A42AFAE5F03BFBE5318535F0A42AFAC6
:1001EE00E5F03BFBE5308536F0A42AFAE5F03BFB63
:1001FE00E5338534F0A42BFBE5328535F0A42BFBDB
:10020E00E5318536F0A42BFBE5308537F0A42BFBCA
:10021E008B338A3289318830D003D002D001D0009E
:10022E00D0D0D0F0D0E022C0E0C0D0C000C001C01D
:10023E0002C003C0047C20E4F8F9FAFBC3E53033B6
:10024E00F530E53133F531E53233F532E53333F55B
:10025E0033E833F8E933F9EA33FAEB33FBC3E895C5
:10026E0034E99535EA9536EB95374013E89534F831
:10027E00E99535F9EA9536FAEB9537FB433001DC13
:10028E00BBD004D003D002D001D000D0D0D0E02219
:10029E0085303485313585323685333722E530C5A4
:1002AE0034F530E531C535F531E532C536F532E593
:0602BE0033C537F53322C1
:1002C400C00078B10000D8FCD00022C000C0017981
:1002D4002D78A6D8FED9FADAF6D001D00022D2B30E
:1002E4001202C4C2B322A2E792B7A2E692B6A2E572
:1002F40092B5A2E492B41202E21202C4A2E392B74B
:10030400A2E292B6A2E192B5A2E092B41202E22273
:10031400D2B20202EAC2B20202EAC2B374331203D4
:10032400197433120319743212031974281203193D
:10033400740C1203197401120319C0027A02120216
:10034400CFD00222E4936006120314A380F6224461
:10035400404480020319C0E0E8C4540F443012033F
:0C03640014E8540F4430120314D0E022BF
:1003700050312020202020202020202020205032FA
:10038000003030202020202020202020202030304D
:1003900000506C6179657220313A2000506C6179AF
:1003A000657220323A2000436F6E67726174756C1B
:1003B0006174696F6E732000506C617965723120D1
:1003C00077696E732120202000506C61796572324C
:1003D0002077696E732120202000202020202052C9
:1003E000656164793F2020202020002020202020EB
:1003F000202033202020202020202000202020200A
:1004000020202032202020202020202000202020FA
:1004100020202020312020202020202020002020EB
:1004200020202020476F2120202020202020002075
:100430002020506C617920416761696E3F20200067
:1004400020202050726573732052657365742020DC
:1004500000C000A84012035AD000C000A83F1203F9
:100460005AD000C000A83E12035AD000C000A83DD8
:1004700012035AD000C000A83C12035AD00022E553
:100480008954F04401F589758C50758AC075F45013
:1004900075F2C0D2A9D28C22E58954F04401F589C5
:1004A000758C6C758AD075F46C75F2D0D2A9D28C2B
:1004B00022E58954F04401F589758C23758A987575
:1004C000F42375F298D2A9D28C22E58954F0440124
:1004D000F589758C7C758AE575F47C75F2E5D2A991
:1004E000D28C22E58954F04401F589758C3B758ADC
:1004F000A375F43B75F2A3D2A9D28C22E58954F0FE
:100500004401F589758C91758ACC75F49175F2CC9E
:10051000D2A9D28C2275C80075CB0075CA00D2ADA5
:1005200022C2CFC0E00541E54170020542D0E03271
:10053000E58954F04401F589758C91758AA875F4A4
:100540009175F2A8D2A9D28C22E58954F04401F524
:1005500089758CEA758AE875F4EA75F2E8D2A9D251
:100560008C22E58954F04401F589758CFE758AAFBB
:1005700075F4FE75F2AFD2A9D28C22B291B2A33239
:1005800012051512031ED2AF2275817F120580D28B
:1005900080754700754800C0E0740114120355D0FF
:1005A000E0C083C082C0E0900370120348D0E0D066
:1005B00082D08312053012051585CD43754401752F
:1005C000458785CC46120B46120DD7120DD7C002B7
:1005D0007AFF1202CFD002C0027AFF1202CFD002FD
:1005E000C0027AFF1202CFD002C0027AFF1202CFFD
:1005F000D002C0027AFF1202CFD002C0027AFF12EC
:1006000002CFD002C0027AFF1202CFD002C0027A1B
:10061000FF1202CFD002120BD41209CEC2CA75CC7F
:100620000075CD00754100754200C2CFD2CA1206D6
:100630003E12064812066412066D12069922E54221
:1006400054FE70362080F722E54254FE702C308034
:10065000F7C2CA75CC0075CD00754100754200C265
:10066000CFD2CA22E54254FE70102080F7E54254F2
:10067000FE70073080F7C2CA801FC0E074011412F8
:100680000353D0E0C083C082C0E0900381120348CE
:10069000D0E0D082D08302061CE5CC45CD45414553
:1006A0004260D7120BA922C2CA75CC0075CD007565
:1006B0004100754200C2CFD2CA1206C91206D31237
:1006C00006EF1206F812070822E54254FE70AB202E
:1006D000A1F722E54254FE702C30A1F7C2CA75CCB6
:1006E0000075CD00754100754200C2CFD2CA22E527
:1006F0004254FE701020A1F7E54254FE700730A16D
:10070000F7C2CA800302067AE5CC45CD4541454291
:1007100060F3120BA92212061C7534007535297579
:10072000360E75370012015220000122C200E4C0CB
:10073000E0740114120353D0E0E5472401D4F547D7
:10074000C000A84712035AD000120AA01209EC02F6
:100750000BD4C2001206A775345875354475360E91
:1007600075370012015220000122C200E4C0E0747B
:100770000F14120353D0E0E5482401D4F548C0001B
:10078000A84812035AD000120AA0120A0B020BD476
:1007900002061CC20012061CC0E0740114120353AE
:1007A000D0E0C000A84712035AD000753400753558
:1007B0002975360E75370012015220000122C20041
:1007C000E5472499D4F547C0E0740114120353D0CF
:1007D000E0C000A84712035AD000120562120AF3C3
:1007E000020BD4C2001206A7C0E0740F1412035308
:1007F000D0E0C000A84812035AD0007534587535AF
:100800004475360E75370012015220000122C200D5
:10081000E5482499D4F548C0E0740F14120353D06E
:10082000E0C000A84812035AD000120AF3020BD409
:100830008543308544318545328546337534FD75B1
:1008400035437536037537001201A87534C3753505
:100850009E7536267537001200F385304385314486
:1008600085324585334622120830C002AA4312025F
:10087000CFD0021207931207E3C002AA441202CF9C
:10088000D0021207931207E3C002AA451202CFD08A
:10089000021207931207E3C002AA461202CFD00247
:1008A0001207931207E3C002AA431202CFD002122A
:1008B00007931207E3C002AA441202CFD002120724
:1008C000931207E3C002AA451202CFD00212079387
:1008D0001207E3C002AA461202CFD00212079312F7
:1008E00007E3C002AA431202CFD0021207931207F5
:1008F000E3C002AA441202CFD0021207931207E308
:10090000C002AA451202CFD0021207931207E3C019
:1009100002AA461202CFD0021207931207E3C002C6
:10092000AA431202CFD0021207931207E3C002AA11
:10093000441202CFD0021207931207E3C002AA4565
:100940001202CFD0021207931207E3C002AA461286
:1009500002CFD0021207931207E322C0027AFF12DD
:1009600002CFD002120716120752C0027AFF1202FB
:10097000CFD002120716120752C0027AFF1202CF1E
:10098000D002120716120752C0027AFF1202CFD00D
:1009900002120716120752C0027AFF1202CFD002CB
:1009A000120716120752C0027AFF1202CFD00212AB
:1009B0000716120752C0027AFF1202CFD0021207A6
:1009C00016120752C0027AFF1202CFD0022212067C
:1009D0001C12053012086712061C12054912061C6B
:1009E00012095B12061C1205300209CE85473075CC
:1009F0003100753200753300753405753500753674
:100A00000075370012016E200020228548307531B4
:100A10000075320075330075340575350075360084
:100A200075370012016E20003C22C0E074011412E0
:100A30000355D0E0C083C082C0E09003A7120348F2
:100A4000D0E0D082D083C0E0740114120353D0E010
:100A5000C083C082C0E09003B8120348D0E0D082C7
:100A6000D083120D51C0E0740114120355D0E0C0C0
:100A700083C082C0E09003A7120348D0E0D082D0A8
:100A800083C0E0740114120353D0E0C083C082C05D
:100A9000E09003C9120348D0E0D082D083120D51F8
:100AA000120562B2A5C0027AFF1202CFD002B2A72D
:100AB000C0027AFF1202CFD002B287C0027AFF12C0
:100AC00002CFD002B285C0027AFF1202CFD002B2AA
:100AD000A5C0027AFF1202CFD002B2A7C0027AFFED
:100AE0001202CFD002B287C0027AFF1202CFD00228
:100AF000B28522120562B281C0027AFF1202CFD003
:100B000002B282C0027AFF1202CFD002B283C002C8
:100B10007AFF1202CFD002B284C0027AFF1202CF53
:100B2000D002B281C0027AFF1202CFD002B282C0DC
:100B3000027AFF1202CFD002B283C0027AFF120201
:100B4000CFD002B28422120562B2A5B281C0027A6D
:100B5000FF1202CFD002B2A7B282C0027AFF120205
:100B6000CFD002B287B283C0027AFF1202CFD00286
:100B7000B285B284C0027AFF1202CFD002B2A5B20F
:100B800081C0027AFF1202CFD002B2A7B282C002A5
:100B90007AFF1202CFD002B287B283C0027AFF126C
:100BA00002CFD002B285B2842285CC3085CD31858A
:100BB000413285423375342D7535007536007537F1
:100BC000001201A875340A753500753600753700B6
:100BD0001201A822120562C0027AFF1202CFD002CF
:100BE000C0027AFF1202CFD002C0027AFF1202CFF7
:100BF000D002C0E0740114120355D0E0C083C0825B
:100C0000C0E09003DA120348D0E0D082D083C00263
:100C10007AFF1202CFD002C0027AFF1202CFD002B6
:100C2000C0027AFF1202CFD002C0027AFF1202CFB6
:100C3000D002C0E0740114120355D0E0C083C0821A
:100C4000C0E09003EB120348D0E0D082D083C00212
:100C50007AFF1202CFD002C0027AFF1202CFD00276
:100C6000C0027AFF1202CFD002C0027AFF1202CF76
:100C7000D002C0E0740114120355D0E0C083C082DA
:100C8000C0E09003FC120348D0E0D082D083C002C1
:100C90007AFF1202CFD002C0027AFF1202CFD00236
:100CA000C0027AFF1202CFD002C0027AFF1202CF36
:100CB000D002C0E0740114120355D0E0C083C0829A
:100CC000C0E090040D120348D0E0D082D083C0026F
:100CD0007AFF1202CFD002C0027AFF1202CFD002F6
:100CE000C0027AFF1202CFD002C0027AFF1202CFF6
:100CF000D002C0E0740114120355D0E0C083C0825A
:100D0000C0E090041E120348D0E0D082D083C0021D
:100D10007AFF1202CFD002C0027AFF1202CFD002B5
:100D2000C0027AFF1202CFD002C0027AFF1202CFB5
:100D3000D002C0E0740114120355D0E0C083C08219
:100D4000C0E0900370120348D0E0D082D083020943
:100D5000CE120562C0027AFF1202CFD002C0027A20
:100D6000FF1202CFD002C0027AFF1202CFD002C01F
:100D7000027AFF1202CFD002C0027AFF1202CFD055
:100D800002C0027AFF1202CFD002C0027AFF120222
:100D9000CFD002C0027AFF1202CFD002C0E07401AD
:100DA00014120355D0E0C083C082C0E090042F121B
:100DB0000348D0E0D082D083C0E074011412035302
:100DC000D0E0C083C082C0E0900440120348D0E06D
:100DD000D082D083020D511204CAC0027AFF1202DF
:100DE000CFD002C0027AFF1202CFD002120562C039
:100DF000027AFF1202CFD002C0027AFF1202CFD0D5
:100E000002120498120562120498C0027A96120225
:100E1000CFD002120562C0027A141202CFD00212A1
:100E20000498C0027A961202CFD002120562C00264
:100E30007A141202CFD002120498C0027A961202DB
:100E4000CFD002120562C0027A141202CFD002C0C3
:100E5000027AFF1202CFD002C0027AFF1202CFD074
:100E600002C0027AFF1202CFD0021204E3C0027A5B
:100E7000961202CFD002120562C0027A141202CF7B
:100E8000D0021204E3C0027A961202CFD0021205F9
:100E900062C0027A141202CFD0021204E3C0027AB6
:100EA000961202CFD002120562C0027A141202CF4B
:100EB000D002C0027AFF1202CFD002C0027AFF1223
:100EC00002CFD002C0027AFF1202CFD002C0027A53
:100ED000FF1202CFD002C0027AFF1202CFD002C0AE
:100EE000027AFF1202CFD0021204FCC0027A9612DC
:100EF00002CFD0021204CAC0027A961202CFD002E8
:100F0000120498C0027A961202CFD00212047FC057
:100F1000027A961202CFD0021204E3C0027A96122D
:100F200002CFD00212047FC0027A961202CFD00202
:100F30001204E3C0027A961202CFD0021204B1C0AA
:100F4000027A961202CFD002120562C0027AFF1214
:100F500002CFD002C0027AFF1202CFD002C0027AC2
:070F6000FF1202CFD00222B4
:00000001FF
