:03000000020416E1
:03000B0002040AE2
:03002B000203C904
:10002E00C0E0C0D0C000C001C002E4F538F539F51B
:10003E003AF53BF53C7A20E533A2E779047830E6D1
:10004E0033F608D9FA79057838E636D4F608D9F9B0
:10005E00DAE5D002D001D000D0D0D0E022C0E0C08E
:10006E00D0C000C001C002E4F538F539F53AF53BD1
:10007E00F53C7A20E533A2E779047830E633F608CA
:10008E00D9FA79057838C0D0E6243320E70224D097
:10009E0020E30224FDD0D033F608D9EADAD6D00216
:1000AE00D001D000D0D0D0E022C0E0C0D0C000C07F
:1000BE0001C0027A207905C3783CE613C0D030E740
:1000CE000224D030E30224FDF618D0D0D9EC790406
:1000DE007833E613F618D9FADADBD002D001D00065
:1000EE00D0D0D0E022C0E0C0D0E5302534F530E5E8
:1000FE00313535F531E5323536F532E5333537F50F
:10010E0033D0D0D0E022C0E0C0D0C3E5309534F576
:10011E0030E5319535F531E5329536F532E53395E5
:10012E0037F533D0D0D0E022C0E0C0D0C3E5309553
:10013E0034E5319535E5329536E53395379200D075
:10014E00D0D0E022C0E0C0D0C3E5349530E535957F
:10015E0031E5369532E53795339200D0D0D0E02296
:10016E00C0E0C0D0C200C3E53495307014E53595BB
:10017E0031700EE53695327008E53795337002D240
:10018E0000D0D0D0E02212016E20000302015222D4
:10019E0012016E20000302013622C0E0C0F0C0D072
:1001AE00C000C001C002C003E5308534F0A4F8A938
:1001BE00F0E5318534F0A429F9E435F0FAE530851F
:1001CE0035F0A429F9E5F03AFAE433FBE53285344B
:1001DE00F0A42AFAE5F03BFBE5318535F0A42AFAC6
:1001EE00E5F03BFBE5308536F0A42AFAE5F03BFB63
:1001FE00E5338534F0A42BFBE5328535F0A42BFBDB
:10020E00E5318536F0A42BFBE5308537F0A42BFBCA
:10021E008B338A3289318830D003D002D001D0009E
:10022E00D0D0D0F0D0E022C0E0C0D0C000C001C01D
:10023E0002C003C0047C20E4F8F9FAFBC3E53033B6
:10024E00F530E53133F531E53233F532E53333F55B
:10025E0033E833F8E933F9EA33FAEB33FBC3E895C5
:10026E0034E99535EA9536EB95374013E89534F831
:10027E00E99535F9EA9536FAEB9537FB433001DC13
:10028E00BBD004D003D002D001D000D0D0D0E02219
:10029E0085303485313585323685333722E530C5A4
:1002AE0034F530E531C535F531E532C536F532E593
:0602BE0033C537F53322C1
:1002C400C00078B10000D8FCD00022C000C0017981
:1002D4002D78A6D8FED9FADAF6D001D00022D2B30E
:1002E4001202C4C2B322A2E792B7A2E692B6A2E572
:1002F40092B5A2E492B41202E21202C4A2E392B74B
:10030400A2E292B6A2E192B5A2E092B41202E22273
:10031400D2B20202EAC2B20202EAC2B374331203D4
:10032400197433120319743212031974281203193D
:10033400740C1203197401120319C0027A02120216
:10034400CFD00222E4936006120314A380F6224461
:10035400404480020319C0E0E8C4540F443012033F
:0C03640014E8540F4430120314D0E022BF
:10037000503120202020202020202020503200300A
:10038000302020202020202020202020303000C0BD
:1003900000A83C12035AD000C000A83B12035AD058
:1003A00000C000A83A12035AD000C000A8391203B6
:1003B0005AD000C000A83812035AD0002275C800D5
:1003C00075CB0075CA00D2AD22C2CFC0E0053DE5B5
:1003D0003D7002053ED0E032E58954F04401F589D4
:1003E000758CA9758A9A75F4A975F29AD2A9D28CDE
:1003F00022E58954F04401F589758CEA758AE8751F
:10040000F4EA75F2E8D2A9D28C22B291321203BD7D
:1004100012031ED2AF2275817F12040DD280C0E07C
:10042000740114120355D0E0C083C082C0E0900371
:1004300070120348D0E0D082D0831203D81203BDDB
:10044000C2CA75CC0075CD00753D00753E00C2CFA7
:10045000D2CA1206C285CD3F75400175418785CC51
:1004600042C2CAE53E54FE70342080F7E53E54FE99
:10047000702B3080F7C2CA75CC0075CD00753D0079
:10048000753E00C2CFD2CAE53E54FE70102080F700
:10049000E53E54FE70073080F7C2CA801FC0E0748A
:1004A0000114120353D0E0C083C082C0E090037FE8
:1004B000120348D0E0D082D083020440E5CC45CD81
:1004C000453D453E60D785CC3085CD31853D328573
:1004D0003E3375342D7535007536007537001201C1
:1004E000A87534647535007536007537001202350D
:1004F0007534907535007536007537001201A87592
:1005000034B0753504753600753700120235C0E019
:10051000740114120353D0E012002E12038F020450
:1005200040853F308540318541328542337534FD09
:100530007535437536037537001201A87534C375D8
:10054000359E7536267537001200F385303F8531AC
:100550004085324185334222C002AA3F1202CFD0E9
:1005600002C002AA401202CFD002C002AA41120267
:10057000CFD002C002AA421202CFD002C002AA3FCC
:100580001202CFD002C002AA401202CFD002C00293
:10059000AA411202CFD002C002AA421202CFD00258
:1005A000C002AA3F1202CFD002C002AA401202CF5C
:1005B000D002C002AA411202CFD002C002AA421247
:1005C00002CFD002C002AA3F1202CFD002C002AABC
:1005D000401202CFD002C002AA411202CFD002C004
:1005E00002AA421202CFD002C002AA3F1202CFD00A
:1005F00002C002AA401202CFD002C002AA411202D7
:10060000CFD002C002AA421202CFD002C002AA3F3B
:100610001202CFD002C002AA401202CFD002C00202
:10062000AA411202CFD002C002AA421202CFD002C7
:10063000C002AA3F1202CFD002C002AA401202CFCB
:10064000D002C002AA411202CFD002C002AA4212B6
:1006500002CFD002C002AA3F1202CFD002C002AA2B
:10066000401202CFD002C002AA411202CFD002C073
:1006700002AA421202CFD00222C0027AFF1202CF97
:10068000D002C0027AFF1202CFD002C0027AFF125B
:1006900002CFD002C0027AFF1202CFD002C0027A8B
:1006A000FF1202CFD002C0027AFF1202CFD002C0E6
:1006B000027AFF1202CFD002C0027AFF1202CFD01C
:0F06C00002221205581203F11206791203D822F2
:00000001FF
