:030000000205B244
:03000B000205A447
:03002B0002054A81
:10002E00C0E0C0D0C000C001C002E4F53CF53DF513
:10003E003EF53FF5407A20E533A2E779047830E6C5
:10004E0033F608D9FA7905783CE636D4F608D9F9AC
:10005E00DAE5D002D001D000D0D0D0E022C0E0C08E
:10006E00D0C000C001C002E4F53CF53DF53EF53FC1
:10007E00F5407A20E533A2E779047830E633F608C6
:10008E00D9FA7905783CC0D0E6243320E70224D093
:10009E0020E30224FDD0D033F608D9EADAD6D00216
:1000AE00D001D000D0D0D0E022C0E0C0D0C000C07F
:1000BE0001C0027A207905C37840E613C0D030E73C
:1000CE000224D030E30224FDF618D0D0D9EC790406
:1000DE007833E613F618D9FADADBD002D001D00065
:1000EE00D0D0D0E022C0E0C0D0E5302534F530E5E8
:1000FE00313535F531E5323536F532E5333537F50F
:10010E0033D0D0D0E022C0E0C0D0C3E5309534F576
:10011E0030E5319535F531E5329536F532E53395E5
:10012E0037F533D0D0D0E022C0E0C0D0C3E5309553
:10013E0034E5319535E5329536E53395379200D075
:10014E00D0D0E022C0E0C0D0C3E5349530E535957F
:10015E0031E5369532E53795339200D0D0D0E02296
:10016E00C0E0C0D0C200C3E53495307014E53595BB
:10017E0031700EE53695327008E53795337002D240
:10018E0000D0D0D0E02212016E20000302015222D4
:10019E0012016E20000302013622C0E0C0F0C0D072
:1001AE00C000C001C002C003E5308534F0A4F8A938
:1001BE00F0E5318534F0A429F9E435F0FAE530851F
:1001CE0035F0A429F9E5F03AFAE433FBE53285344B
:1001DE00F0A42AFAE5F03BFBE5318535F0A42AFAC6
:1001EE00E5F03BFBE5308536F0A42AFAE5F03BFB63
:1001FE00E5338534F0A42BFBE5328535F0A42BFBDB
:10020E00E5318536F0A42BFBE5308537F0A42BFBCA
:10021E008B338A3289318830D003D002D001D0009E
:10022E00D0D0D0F0D0E022C0E0C0D0C000C001C01D
:10023E0002C003C0047C20E4F8F9FAFBC3E53033B6
:10024E00F530E53133F531E53233F532E53333F55B
:10025E0033E833F8E933F9EA33FAEB33FBC3E895C5
:10026E0034E99535EA9536EB95374013E89534F831
:10027E00E99535F9EA9536FAEB9537FB433001DC13
:10028E00BBD004D003D002D001D000D0D0D0E02219
:10029E0085303485313585323685333722E530C5A4
:1002AE0034F530E531C535F531E532C536F532E593
:0602BE0033C537F53322C1
:1002C400C00078B10000D8FCD00022C000C0017981
:1002D4002D78A6D8FED9FADAF6D001D00022D2B30E
:1002E4001202C4C2B322A2E792B7A2E692B6A2E572
:1002F40092B5A2E492B41202E21202C4A2E392B74B
:10030400A2E292B6A2E192B5A2E092B41202E22273
:10031400D2B20202EAC2B20202EAC2B374331203D4
:10032400197433120319743212031974281203193D
:10033400740C1203197401120319C0027A02120216
:10034400CFD00222E4936006120314A380F6224461
:10035400404480020319C0E0E8C4540F443012033F
:0C03640014E8540F4430120314D0E022BF
:1003700050312020202020202020202020205032FA
:10038000003030202020202020202020202030304D
:1003900000506C6179657220313A2000506C6179AF
:1003A000657220323A2000436F6E67726174756C1B
:1003B0006174696F6E732000506C617965723120D1
:1003C00077696E732120202000506C61796572324C
:1003D0002077696E732120202000202020202052C9
:1003E000656164793F2020202020002020202020EB
:1003F000202033202020202020202000202020200A
:1004000020202032202020202020202000202020FA
:1004100020202020312020202020202020002020EB
:1004200020202020476F2120202020202020002075
:100430002020506C617920416761696E3F20200067
:1004400020202050726573732052657365742020DC
:1004500000202020202020202020202020202020BC
:100460002000570045004C0043004F004D00540051
:1004700053004100500044002D00C000A84012036A
:100480005AD000C000A83F12035AD000C000A83EB6
:1004900012035AD000C000A83D12035AD000C00079
:1004A000A83C12035AD00022E58954F04401F58992
:1004B000758C50758AC075F45075F2C0D2A9D28C73
:1004C00022E58954F04401F589758C6C758AD075E4
:1004D000F46C75F2D0D2A9D28C22E58954F0440193
:1004E000F589758C23758A9875F42375F298D2A9CD
:1004F000D28C22E58954F04401F589758C7C758A8B
:10050000E575F47C75F2E5D2A9D28C22E58954F028
:100510004401F589758C3B758AA375F43B75F2A38C
:10052000D2A9D28C22E58954F04401F589758C91C9
:10053000758ACC75F49175F2CCD2A9D28C2275C88B
:100540000075CB0075CA00D2AD22C2CFC0E0054114
:10055000E54170020542D0E032E58954F04401F5EE
:1005600089758C91758AA875F49175F2A8D2A9D273
:100570008C22E58954F04401F589758CEA758AE886
:1005800075F4EA75F2E8D2A9D28C22E58954F044D8
:1005900001F589758CFE758AAF75F4FE75F2AFD2E0
:1005A000A9D28C22B291B2A33212053E12031ED2FE
:1005B000AF2275817F1205A9D2807547007548006A
:1005C000C0E0740114120355D0E0C083C082C0E0C3
:1005D000900451120348D0E0D082D083C0E074016F
:1005E00014120353D0E0C083C082C0E090045112C3
:1005F0000348D0E0D082D08312055912053E85CD44
:100600004375440175458785CC46120B9C120E2D0F
:10061000C0E0740114120355D0E0C083C082C0E072
:10062000900451120348D0E0D082D083C0E074011E
:1006300014120353D0E0C083C082C0E09004511272
:100640000348D0E0D082D083C0027AFF1202CFD01C
:1006500002C0027AFF1202CFD002C0027AFF120259
:10066000CFD002C0027AFF1202CFD002120C2A129F
:100670000A24C2CA75CC0075CD00754100754200D0
:10068000C2CFD2CA12069412069E1206BA1206C32E
:100690001206EF22E54254FE70362080F722E54232
:1006A00054FE702C3080F7C2CA75CC0075CD007531
:1006B0004100754200C2CFD2CA22E54254FE7010FA
:1006C0002080F7E54254FE70073080F7C2CA801FD1
:1006D000C0E0740114120353D0E0C083C082C0E0B4
:1006E000900381120348D0E0D082D083020672E5E5
:1006F000CC45CD4541454260D7120BFF22C2CA7599
:10070000CC0075CD00754100754200C2CFD2CA122F
:10071000071F12072912074512074E12075E22E52E
:100720004254FE70AB20A1F722E54254FE702C30FB
:10073000A1F7C2CA75CC0075CD00754100754200A5
:10074000C2CFD2CA22E54254FE701020A1F7E54282
:1007500054FE700730A1F7C2CA80030206D0E5CC70
:1007600045CD4541454260F3120BFF2212067275DA
:10077000340075352975360E753700120152200088
:100780000122C200E4C0E0740114120353D0E0E57A
:10079000472401D4F547C000A84712035AD00012DD
:1007A0000AF6120A42020C2AC2001206FD753458DB
:1007B00075354475360E753700120152200001223E
:1007C000C200E4C0E0740F14120353D0E0E54824E3
:1007D00001D4F548C000A84812035AD000120AF606
:1007E000120A61020C2A020672C200120672C0E0EE
:1007F000740114120353D0E0C000A84712035AD06A
:100800000075340075352975360E753700120152A2
:1008100020000122C200E5472499D4F547C0E074C6
:100820000114120353D0E0C000A84712035AD000AD
:1008300012058B120B49020C2AC2001206FDC0E001
:10084000740F14120353D0E0C000A84812035AD00A
:100850000075345875354475360E753700120152DF
:1008600020000122C200E5482499D4F548C0E07474
:100870000F14120353D0E0C000A84812035AD0004E
:10088000120B49020C2A8543308544318545328557
:1008900046337534FD7535437536037537001201DF
:1008A000A87534C375359E7536267537001200F36A
:1008B000853043853144853245853346221208868A
:1008C000C002AA431202CFD0021207E9120839C0AF
:1008D00002AA441202CFD0021207E9120839C0025C
:1008E000AA451202CFD0021207E9120839C002AAA3
:1008F000461202CFD0021207E9120839C002AA43F9
:100900001202CFD0021207E9120839C002AA44121B
:1009100002CFD0021207E9120839C002AA4512021A
:10092000CFD0021207E9120839C002AA461202CF3C
:10093000D0021207E9120839C002AA431202CFD02E
:10094000021207E9120839C002AA441202CFD002EB
:100950001207E9120839C002AA451202CFD00212CA
:1009600007E9120839C002AA461202CFD0021207C4
:10097000E9120839C002AA431202CFD0021207E9D5
:10098000120839C002AA441202CFD0021207E9129B
:100990000839C002AA451202CFD0021207E9120894
:1009A00039C002AA461202CFD0021207E912083952
:1009B00022C0027AFF1202CFD00212076C1207A8DF
:1009C000C0027AFF1202CFD00212076C1207A8C031
:1009D000027AFF1202CFD00212076C1207A8C002DF
:1009E0007AFF1202CFD00212076C1207A8C0027A57
:1009F000FF1202CFD00212076C1207A8C0027AFFC2
:100A00001202CFD00212076C1207A8C0027AFF129E
:100A100002CFD00212076C1207A8C0027AFF12029E
:100A2000CFD002221206721205591208BD120672A8
:100A30001205721206721209B112067212055902DB
:100A40000A248547307531007532007533007534DE
:100A50000575350075360075370012016E200020CF
:100A600022854830753100753200753300753405C4
:100A700075350075360075370012016E20003C2276
:100A8000C0E0740114120355D0E0C083C082C0E0FE
:100A90009003A7120348D0E0D082D083C0E0740155
:100AA00014120353D0E0C083C082C0E09003B81298
:100AB0000348D0E0D082D083120DA7C0E0740114A7
:100AC000120355D0E0C083C082C0E09003A7120398
:100AD00048D0E0D082D083C0E0740114120353D018
:100AE000E0C083C082C0E09003C9120348D0E0D0C8
:100AF00082D083120DA712058BB2A5C0027AFF1215
:100B000002CFD002B2A7C0027AFF1202CFD002B247
:100B100087C0027AFF1202CFD002B285C0027AFFEC
:100B20001202CFD002B2A5C0027AFF1202CFD002C9
:100B3000B2A7C0027AFF1202CFD002B287C0027AF7
:100B4000FF1202CFD002B2852212058BB281C00201
:100B50007AFF1202CFD002B282C0027AFF1202CF15
:100B6000D002B283C0027AFF1202CFD002B284C098
:100B7000027AFF1202CFD002B281C0027AFF1202C3
:100B8000CFD002B282C0027AFF1202CFD002B2836B
:100B9000C0027AFF1202CFD002B2842212058BB2B9
:100BA000A5B281C0027AFF1202CFD002B2A7B282F0
:100BB000C0027AFF1202CFD002B287B283C0027A9B
:100BC000FF1202CFD002B285B284C0027AFF1202B5
:100BD000CFD002B2A5B281C0027AFF1202CFD002FA
:100BE000B2A7B282C0027AFF1202CFD002B287B29D
:100BF00083C0027AFF1202CFD002B285B28422856E
:100C0000CC3085CD3185413285423375342D7535F3
:100C1000007536007537001201A875340A75350065
:100C20007536007537001201A82212058BC0027AB2
:100C3000FF1202CFD002C0027AFF1202CFD002C050
:100C4000027AFF1202CFD002C0E0740114120355E1
:100C5000D0E0C083C082C0E09003DA120348D0E045
:100C6000D082D083C0027AFF1202CFD002C0027AB3
:100C7000FF1202CFD002C0027AFF1202CFD002C010
:100C8000027AFF1202CFD002C0E0740114120355A1
:100C9000D0E0C083C082C0E09003EB120348D0E0F4
:100CA000D082D083C0027AFF1202CFD002C0027A73
:100CB000FF1202CFD002C0027AFF1202CFD002C0D0
:100CC000027AFF1202CFD002C0E074011412035561
:100CD000D0E0C083C082C0E09003FC120348D0E0A3
:100CE000D082D083C0027AFF1202CFD002C0027A33
:100CF000FF1202CFD002C0027AFF1202CFD002C090
:100D0000027AFF1202CFD002C0E074011412035520
:100D1000D0E0C083C082C0E090040D120348D0E050
:100D2000D082D083C0027AFF1202CFD002C0027AF2
:100D3000FF1202CFD002C0027AFF1202CFD002C04F
:100D4000027AFF1202CFD002C0E0740114120355E0
:100D5000D0E0C083C082C0E090041E120348D0E0FF
:100D6000D082D083C0027AFF1202CFD002C0027AB2
:100D7000FF1202CFD002C0027AFF1202CFD002C00F
:100D8000027AFF1202CFD002C0E0740114120355A0
:100D9000D0E0C083C082C0E0900370120348D0E06E
:100DA000D082D083020A2412058BC0027AFF12027D
:100DB000CFD002C0027AFF1202CFD002C0027AFF67
:100DC0001202CFD002C0027AFF1202CFD002C002BC
:100DD0007AFF1202CFD002C0027AFF1202CFD002F5
:100DE000C0027AFF1202CFD002C0027AFF1202CFF5
:100DF000D002C0E0740114120355D0E0C083C08259
:100E0000C0E090042F120348D0E0D082D083C0E02D
:100E1000740114120353D0E0C083C082C0E0900478
:100E200040120348D0E0D082D083020DA7C0E07406
:100E30000114120355D0E0C083C082C0E090046268
:100E4000120348D0E0D082D0831204F3C0027AFFAC
:100E50001202CFD002C0E0740214120355D0E0C0D9
:100E600083C082C0E0900464120348D0E0D082D0F6
:100E700083C0027AFF1202CFD002C0E074031412C2
:100E80000355D0E0C083C082C0E0900466120348DE
:100E9000D0E0D082D08312058BC0027AFF1202CF3D
:100EA000D002C0E0740414120355D0E0C083C082A5
:100EB000C0E0900468120348D0E0D082D083C00222
:100EC0007AFF1202CFD002C0E0740514120355D08D
:100ED000E0C083C082C0E090046A120348D0E0D032
:100EE00082D0831204C112058B1204C1C0027A960B
:100EF0001202CFD00212058BC0027A141202CFD098
:100F000002C0E0740614120355D0E0C083C082C052
:100F1000E090046C120348D0E0D082D0831204C168
:100F2000C0027A961202CFD00212058BC0027A1448
:100F30001202CFD002C0E0740714120355D0E0C0F3
:100F400083C082C0E0900464120348D0E0D082D015
:100F5000831204C1C0027A961202CFD00212058B0E
:100F6000C0027A141202CFD002C0E0740914120336
:100F700055D0E0C083C082C0E090046E120348D018
:100F8000E0D082D083C0027AFF1202CFD002C0E04C
:100F9000740A14120355D0E0C083C082C0E09004EC
:100FA0006A120348D0E0D082D083C0027AFF1202D6
:100FB000CFD002C0E0740114120353D0E0C083C04C
:100FC00082C0E0900470120348D0E0D082D083C089
:100FD000027AFF1202CFD002C0E07402141203534F
:100FE000D0E0C083C082C0E0900466120348D0E025
:100FF000D082D08312050CC0027A961202CFD002A2
:10100000C0E0740314120353D0E0C083C082C0E078
:10101000900472120348D0E0D082D08312058BC0B6
:10102000027A141202CFD00212050CC0027A961274
:1010300002CFD002C0E0740414120353D0E0C08386
:10104000C082C0E0900474120348D0E0D082D08304
:1010500012058BC0027A141202CFD00212050CC006
:10106000027A961202CFD002C0E074051412035324
:10107000D0E0C083C082C0E0900478120348D0E082
:10108000D082D08312058BC0027A141202CFD00214
:10109000C0027AFF1202CFD002C0E074061412031D
:1010A00053D0E0C083C082C0E0900472120348D0E5
:1010B000E0D082D083C0027AFF1202CFD002C0E01B
:1010C000740714120353D0E0C083C082C0E09004C0
:1010D00078120348D0E0D082D083C0027AFF120297
:1010E000CFD002C0E0740814120353D0E0C083C014
:1010F00082C0E0900476120348D0E0D082D083C052
:10110000027AFF1202CFD002C0E074091412035316
:10111000D0E0C083C082C0E090046A120348D0E0EF
:10112000D082D083C0027AFF1202CFD002C0E07416
:101130000A14120353D0E0C083C082C0E090046A56
:10114000120348D0E0D082D083C0027AFF1202CFCF
:10115000D002120525C0027A821202CFD0021204F8
:10116000F3C0027A821202CFD0021204C1C0027A06
:10117000821202CFD0021204A8C0027A821202CFD9
:10118000D00212050CC0027A821202CFD0021204E1
:10119000A8C0027A501202CFD00212050CC0027A07
:1011A000821202CFD0021204DAC0027A821202CF77
:1011B000D00212058BC0027AFF1202CFD00222C0E9
:1011C00083C082C0E0900451120348D0E0D082D0A6
:1011D00083C0E0740114120355D0E0C083C082C004
:1011E000E0900462120348D0E0D082D083C0027A3B
:0611F000FF1202CFD00245
:00000001FF
