:0300000002089162
:03000B0002088365
:03002B000208299F
:10002E00C0E0C0D0C000C001C002E4F53CF53DF513
:10003E003EF53FF5407A20E533A2E779047830E6C5
:10004E0033F608D9FA7905783CE636D4F608D9F9AC
:10005E00DAE5D002D001D000D0D0D0E022C0E0C08E
:10006E00D0C000C001C002E4F53CF53DF53EF53FC1
:10007E00F5407A20E533A2E779047830E633F608C6
:10008E00D9FA7905783CC0D0E6243320E70224D093
:10009E0020E30224FDD0D033F608D9EADAD6D00216
:1000AE00D001D000D0D0D0E022C0E0C0D0C000C07F
:1000BE0001C0027A207905C37840E613C0D030E73C
:1000CE000224D030E30224FDF618D0D0D9EC790406
:1000DE007833E613F618D9FADADBD002D001D00065
:1000EE00D0D0D0E022C0E0C0D0E5302534F530E5E8
:1000FE00313535F531E5323536F532E5333537F50F
:10010E0033D0D0D0E022C0E0C0D0C3E5309534F576
:10011E0030E5319535F531E5329536F532E53395E5
:10012E0037F533D0D0D0E022C0E0C0D0C3E5309553
:10013E0034E5319535E5329536E53395379200D075
:10014E00D0D0E022C0E0C0D0C3E5349530E535957F
:10015E0031E5369532E53795339200D0D0D0E02296
:10016E00C0E0C0D0C200C3E53495307014E53595BB
:10017E0031700EE53695327008E53795337002D240
:10018E0000D0D0D0E02212016E20000302015222D4
:10019E0012016E20000302013622C0E0C0F0C0D072
:1001AE00C000C001C002C003E5308534F0A4F8A938
:1001BE00F0E5318534F0A429F9E435F0FAE530851F
:1001CE0035F0A429F9E5F03AFAE433FBE53285344B
:1001DE00F0A42AFAE5F03BFBE5318535F0A42AFAC6
:1001EE00E5F03BFBE5308536F0A42AFAE5F03BFB63
:1001FE00E5338534F0A42BFBE5328535F0A42BFBDB
:10020E00E5318536F0A42BFBE5308537F0A42BFBCA
:10021E008B338A3289318830D003D002D001D0009E
:10022E00D0D0D0F0D0E022C0E0C0D0C000C001C01D
:10023E0002C003C0047C20E4F8F9FAFBC3E53033B6
:10024E00F530E53133F531E53233F532E53333F55B
:10025E0033E833F8E933F9EA33FAEB33FBC3E895C5
:10026E0034E99535EA9536EB95374013E89534F831
:10027E00E99535F9EA9536FAEB9537FB433001DC13
:10028E00BBD004D003D002D001D000D0D0D0E02219
:10029E0085303485313585323685333722E530C5A4
:1002AE0034F530E531C535F531E532C536F532E593
:0602BE0033C537F53322C1
:1002C400C00078B10000D8FCD00022C000C0017981
:1002D4002D78A6D8FED9FADAF6D001D00022D2B30E
:1002E4001202C4C2B322A2E792B7A2E692B6A2E572
:1002F40092B5A2E492B41202E21202C4A2E392B74B
:10030400A2E292B6A2E192B5A2E092B41202E22273
:10031400D2B20202EAC2B20202EAC2B374331203D4
:10032400197433120319743212031974281203193D
:10033400740C1203197401120319C0027A02120216
:10034400CFD00222E4936006120314A380F6224461
:10035400404480020319C0E0E8C4540F443012033F
:0C03640014E8540F4430120314D0E022BF
:1003700050312020202020202020202020205032FA
:10038000003030202020202020202020202030304D
:1003900000506C6179657220313A2000506C6179AF
:1003A000657220323A2000436F6E67726174756C1B
:1003B0006174696F6E732000506C617965723120D1
:1003C00077696E732120202000506C61796572324C
:1003D0002077696E73212020200020202020596F73
:1003E000752057696E2120202020005374696C6CA1
:1003F000206E6F20667269656E6473002020202075
:100400002052656164793F20202020200020202098
:1004100020202020332020202020202020002020E9
:1004200020202020203220202020202020200020DA
:1004300020202020202031202020202020202000CB
:10044000202020202020476F212020202020202035
:1004500000202020506C617920416761696E3F2047
:1004600020002020205072657373205265736574DC
:10047000202000202020202020202020202020209C
:1004800020202000204F6E6520506C617965723FFE
:10049000204F72200020202054776F20506C61790B
:1004A00065723F2020005031202020202020202075
:1004B00020202020202000570045004C0043004F02
:1004C000004D00540053004100500044002D00C076
:1004D00000A84012035AD000C000A83F12035AD00F
:1004E00000C000A83E12035AD000C000A83D12036D
:1004F0005AD000C000A83C12035AD00022E589540B
:10050000F04401F589758CA3758A3475F4A375F2EE
:1005100034D2A9D28C22E58954F04401F589758C36
:10052000B7758A3B75F4B775F23BD2A9D28C22E538
:100530008954F04401F589758CC9758A1775F4C919
:1005400075F217D2A9D28C22E58954F04401F589BD
:10055000758CDB758A2075F4DB75F220D2A9D28CFC
:1005600022E58954F04401F589758CEB758A307564
:10057000F4EB75F230D2A9D28C22E58954F0440113
:10058000F589758CFB758A2F75F4FB75F22FD2A94E
:10059000D28C22E58954F04401F589758C09758A5D
:1005A0002575F40975F225D2A9D28C22E58954F07B
:1005B0004401F589758C16758A7D75F41675F27D82
:1005C000D2A9D28C22E58954F04401F589758C2298
:1005D000758A7775F42275F277D2A9D28C22E589D3
:1005E00054F04401F589758C2F758ACF75F42F75F9
:1005F000F2CFD2A9D28C22E58954F04401F5897555
:100600008C3B758AA375F43B75F2A3D2A9D28C22D8
:10061000E58954F04401F589758C46758A9875F41E
:100620004675F298D2A9D28C22E58954F04401F59E
:1006300089758C51758A1A75F45175F21AD2A9D23E
:100640008C22E58954F04401F589758C5A758ACD60
:1006500075F45A75F2CDD2A9D28C22E58954F044B2
:1006600001F589758C64758A0C75F46475F20CD289
:10067000A9D28C22E58954F04401F589758C6C75FA
:100680008AD075F46C75F2D0D2A9D28C22E5895447
:10069000F04401F589758C75758A1875F47575F2D5
:1006A00018D2A9D28C22E58954F04401F589758CC1
:1006B0007C758AE575F47C75F2E5D2A9D28C22E5C9
:1006C0008954F04401F589758C84758A3875F484F1
:1006D00075F238D2A9D28C22E58954F04401F5890B
:1006E000758C8B758A3F75F48B75F23FD2A9D28CCD
:1006F00022E58954F04401F589758C91758ACC7591
:10070000F49175F2CCD2A9D28C22E58954F044013F
:10071000F589758C98758A0875F49875F208D2A9D0
:10072000D28C22E58954F04401F589758C9D758A37
:10073000D275F49D75F2D2D2A9D28C22E58954F0FB
:100740004401F589758CA3758A4C75F4A375F24C38
:10075000D2A9D28C22E58954F04401F589758CA880
:10076000758A8D75F4A875F28DD2A9D28C22E5898F
:1007700054F04401F589758CAD758A7B75F4AD75BF
:10078000F27BD2A9D28C22E58954F04401F5897517
:100790008C50758AC075F45075F2C0D2A9D28C22E3
:1007A000E58954F04401F589758C6C758AD075F42F
:1007B0006C75F2D0D2A9D28C22E58954F04401F5AF
:1007C00089758C23758A9875F42375F298D2A9D20D
:1007D0008C22E58954F04401F589758C7C758AE595
:1007E00075F47C75F2E5D2A9D28C22E58954F044E7
:1007F00001F589758C3B758AA375F43B75F2A3D21C
:10080000A9D28C22E58954F04401F589758C917543
:100810008ACC75F49175F2CCD2A9D28C2275C8001D
:1008200075CB0075CA00D2AD22C2CFC0E00541E54C
:100830004170020542D0E032E58954F04401F58967
:10084000758C91758AA875F49175F2A8D2A9D28C8D
:1008500022E58954F04401F589758CEA758AE875BA
:10086000F4EA75F2E8D2A9D28C22E58954F0440169
:10087000F589758CFE758AAF75F4FE75F2AFD2A955
:10088000D28C22B291B2A33212081D12031ED2AF33
:100890002275817F120888D280754700754800C094
:1008A000E0740114120355D0E0C083C082C0E09010
:1008B0000473120348D0E0D082D083C0E0740114E6
:1008C000120353D0E0C083C082C0E09004731203CF
:1008D00048D0E0D082D08312083812081D85CD435D
:1008E00075440175458785CC461210BE1210BE12A4
:1008F00014CC1210BEC0E0740114120355D0E0C035
:1009000083C082C0E0900473120348D0E0D082D04C
:1009100083C0E0740114120353D0E0C083C082C0CE
:10092000E0900473120348D0E0D082D083C0E0741A
:100930000114120355D0E0C083C082C0E09004844B
:10094000120348D0E0D082D083C0E07401141203B7
:1009500053D0E0C083C082C0E0900495120348D019
:10096000E0D082D083021895C0027AFF1202CFD065
:1009700002C0027AFF1202CFD002C0027AFF120236
:10098000CFD002C0027AFF1202CFD002C2CA75CC09
:100990000075CD00754100754200C2CFD2CA120960
:1009A000AE1209B81209D41209DE120A0922E54270
:1009B00054FE70362080F722E54254FE702C3080C1
:1009C000F7C2CA75CC0075CD00754100754200C2F2
:1009D000CFD2CA22E54254FE70102080F722E542B1
:1009E00054FE70063080F7C2CA22C0E074011412AF
:1009F0000353D0E0C083C082C0E09003811203485B
:100A0000D0E0D082D08302098CE5CC45CD4541456C
:100A10004260D712112122C2CA75CC0075CD007573
:100A20004100754200C2CFD2CA120A39120A4312DB
:100A30000A5F120A68120A7822E54254FE70AB205F
:100A4000A1F722E54254FE702C30A1F7C2CA75CC42
:100A50000075CD00754100754200C2CFD2CA22E5B3
:100A60004254FE701020A1F7E54254FE700730A1F9
:100A7000F7C2CA80030209EAE5CC45CD45414542AB
:100A800060F31211212212098C7534007535297515
:100A9000360E75370012015220003D2212098C7566
:100AA000340075352975360E753700120152200055
:100AB0000122C200E4C0E0740114120353D0E0E547
:100AC000472401D4F547C000A84712035AD00012AA
:100AD0001018120F290212C9C200E4C0E0740114F8
:100AE000120353D0E0E5472401D4F547C000A847DE
:100AF00012035AD000121018120F0A02114CC20031
:100B0000120A1775345875354475360E753700124C
:100B1000015220000122C200E4C0E0740F1412034D
:100B200053D0E0E5482401D4F548C000A84812039A
:100B30005AD000121018120F8302114C02098CC2F5
:100B40000012098CC0E0740114120353D0E0C000FD
:100B5000A84712035AD00075340075352975360E32
:100B600075370012015220005122C20012098CC0B8
:100B7000E0740114120353D0E0C000A84712035AD6
:100B8000D00075340075352975360E7537001201A1
:100B90005220000122C200E5472499D4F547C0E065
:100BA000740114120353D0E0C000A84712035AD0B6
:100BB0000012086A12106B0212C9C200E54724999C
:100BC000D4F547C0E0740114120353D0E0C000A86C
:100BD0004712035AD00012086A12106B02114CC25D
:100BE00000120A17C0E0740F14120353D0E0C000C3
:100BF000A84812035AD00075345875354475360E1E
:100C000075370012015220000122C200E5482499E4
:100C1000D4F548C0E0740F14120353D0E0C000A80C
:100C20004812035AD00012106B02114C85433085D4
:100C300044318545328546337534FD753543753607
:100C4000037537001201A87534C375359E753626B5
:100C50007537001200F38530438531448532458570
:100C6000334622120C2CC002AA431202CFD0021229
:100C70000B3F120BDFC002AA441202CFD002120BAC
:100C80003F120BDFC002AA451202CFD002120B3F67
:100C9000120BDFC002AA461202CFD002120B3F1283
:100CA0000BDFC002AA431202CFD002120B3F120B7D
:100CB000DFC002AA441202CFD002120B3F120BDF98
:100CC000C002AA451202CFD002120B3F120BDFC0A6
:100CD00002AA461202CFD002120B3F120BDFC00253
:100CE000AA431202CFD002120B3F120BDFC002AA9E
:100CF000441202CFD002120B3F120BDFC002AA45F2
:100D00001202CFD002120B3F120BDFC002AA461212
:100D100002CFD002120B3F120BDFC002AA43120215
:100D2000CFD002120B3F120BDFC002AA441202CF37
:100D3000D002120B3F120BDFC002AA451202CFD025
:100D400002120B3F120BDFC002AA461202CFD002E2
:100D5000120B3F120BDF22120C2CC002AA4312020C
:100D6000CFD002120B6AC002AA441202CFD00212E4
:100D70000B6AC002AA451202CFD002120B6AC0024F
:100D8000AA461202CFD002120B6AC002AA43120274
:100D9000CFD002120B6AC002AA441202CFD00212B4
:100DA0000B6AC002AA451202CFD002120B6AC0021F
:100DB000AA461202CFD002120B6AC002AA43120244
:100DC000CFD002120B6AC002AA441202CFD0021284
:100DD0000B6AC002AA451202CFD002120B6AC002EF
:100DE000AA461202CFD002120B6AC002AA43120214
:100DF000CFD002120B6AC002AA441202CFD0021254
:100E00000B6AC002AA451202CFD002120B6AC002BE
:100E1000AA461202CFD002120B6A22C0027AFF1237
:100E200002CFD002120A86120AFEC0027AFF120214
:100E3000CFD002120A86120AFEC0027AFF1202CF37
:100E4000D002120A86120AFEC0027AFF1202CFD026
:100E500002120A86120AFEC0027AFF1202CFD002E4
:100E6000120A86120AFEC0027AFF1202CFD00212C4
:100E70000A86120AFEC0027AFF1202CFD002120ABC
:100E800086120AFEC0027AFF1202CFD00222C002EE
:100E90007AFF1202CFD002120A9CC0027AFF12021D
:100EA000CFD002120A9CC0027AFF1202CFD00212E7
:100EB0000A9CC0027AFF1202CFD002120A9CC00222
:100EC0007AFF1202CFD002120A9CC0027AFF1202ED
:100ED000CFD002120A9CC0027AFF1202CFD00212B7
:100EE0000A9CC0027AFF1202CFD0022212098C1291
:100EF0000838120C6312098C12085112098C120E58
:100F00001B12098C120838020EEC8547307531002F
:100F1000753200753300753405753500753600750A
:100F2000370012016E20007A228547307531007536
:100F30003200753300753405753500753600753728
:100F40000012016E20000122C0E07401141203554A
:100F5000D0E0C083C082C0E09003DA120348D0E042
:100F6000D082D083C0E0740114120353D0E0C08358
:100F7000C082C0E09003EB120348D0E0D082D0835F
:100F8000121446854830753100753200753300758E
:100F9000340575350075360075370012016E200076
:100FA0003C22C0E0740114120355D0E0C083C0821B
:100FB000C0E09003A7120348D0E0D082D083C0E005
:100FC000740114120353D0E0C083C082C0E09003C8
:100FD000B8120348D0E0D082D083121446C0E07427
:100FE0000114120355D0E0C083C082C0E09003A773
:100FF000120348D0E0D082D083C0E0740114120301
:1010000053D0E0C083C082C0E09003C9120348D02F
:10101000E0D082D08312144612086AB2A5C0027AC8
:10102000FF1202CFD002B2A7C0027AFF1202CFD0C5
:1010300002B287C0027AFF1202CFD002B285C0028C
:101040007AFF1202CFD002B2A5C0027AFF1202CFFD
:10105000D002B2A7C0027AFF1202CFD002B287C07C
:10106000027AFF1202CFD002B2852212086AB28140
:10107000C0027AFF1202CFD002B282C0027AFF12FF
:1010800002CFD002B283C0027AFF1202CFD002B2E6
:1010900084C0027AFF1202CFD002B281C0027AFF6E
:1010A0001202CFD002B282C0027AFF1202CFD00267
:1010B000B283C0027AFF1202CFD002B28422120899
:1010C0006AB2A5B281C0027AFF1202CFD002B2A7E3
:1010D000B282C0027AFF1202CFD002B287B283C0BE
:1010E000027AFF1202CFD002B285B284C0027AFF28
:1010F0001202CFD002B2A5B281C0027AFF1202CF93
:10110000D002B2A7B282C0027AFF1202CFD002B2DE
:1011100087B283C0027AFF1202CFD002B285B284B6
:101120002285CC3085CD3185413285423375342DD1
:101130007535007536007537001201A875340A75CB
:1011400035007536007537001201A82212086AC0F2
:10115000027AFF1202CFD002C0027AFF1202CFD071
:1011600002C0027AFF1202CFD002C0E07401141252
:101170000355D0E0C083C082C0E09003FC12034856
:10118000D0E0D082D083C0027AFF1202CFD002C05A
:10119000027AFF1202CFD002C0027AFF1202CFD031
:1011A00002C0027AFF1202CFD002C0E07401141212
:1011B0000355D0E0C083C082C0E090040D12034804
:1011C000D0E0D082D083C0027AFF1202CFD002C01A
:1011D000027AFF1202CFD002C0027AFF1202CFD0F1
:1011E00002C0027AFF1202CFD002C0E074011412D2
:1011F0000355D0E0C083C082C0E090041E120348B3
:10120000D0E0D082D083C0027AFF1202CFD002C0D9
:10121000027AFF1202CFD002C0027AFF1202CFD0B0
:1012200002C0027AFF1202CFD002C0E07401141291
:101230000355D0E0C083C082C0E090042F12034861
:10124000D0E0D082D083C0027AFF1202CFD002C099
:10125000027AFF1202CFD002C0027AFF1202CFD070
:1012600002C0027AFF1202CFD002C0E07401141251
:101270000355D0E0C083C082C0E090044012034810
:10128000D0E0D082D083C0027AFF1202CFD002C059
:10129000027AFF1202CFD002C0027AFF1202CFD030
:1012A00002C0027AFF1202CFD002C0E07401141211
:1012B0000355D0E0C083C082C0E0900370120348A1
:1012C000D0E0D082D083020EEC12086AC0027AFF0E
:1012D0001202CFD002C0027AFF1202CFD002C002A7
:1012E0007AFF1202CFD002C0E0740114120355D06D
:1012F000E0C083C082C0E09003FC120348D0E0D07D
:1013000082D083C0027AFF1202CFD002C0027AFFDD
:101310001202CFD002C0027AFF1202CFD002C00266
:101320007AFF1202CFD002C0E0740114120355D02C
:10133000E0C083C082C0E090040D120348D0E0D02A
:1013400082D083C0027AFF1202CFD002C0027AFF9D
:101350001202CFD002C0027AFF1202CFD002C00226
:101360007AFF1202CFD002C0E0740114120355D0EC
:10137000E0C083C082C0E090041E120348D0E0D0D9
:1013800082D083C0027AFF1202CFD002C0027AFF5D
:101390001202CFD002C0027AFF1202CFD002C002E6
:1013A0007AFF1202CFD002C0E0740114120355D0AC
:1013B000E0C083C082C0E090042F120348D0E0D088
:1013C00082D083C0027AFF1202CFD002C0027AFF1D
:1013D0001202CFD002C0027AFF1202CFD002C002A6
:1013E0007AFF1202CFD002C0E0740114120355D06C
:1013F000E0C083C082C0E0900440120348D0E0D037
:1014000082D083C0027AFF1202CFD002C0027AFFDC
:101410001202CFD002C0027AFF1202CFD002C00265
:101420007AFF1202CFD002C0E0740114120355D02B
:10143000E0C083C082C0E09004A6120348D0E0D090
:1014400082D083021955121973C0027AFF1202CF9B
:10145000D002C0027AFF1202CFD002C0027AFF127D
:1014600002CFD002C0027AFF1202CFD002C0027AAD
:10147000FF1202CFD002C0027AFF1202CFD002C008
:10148000027AFF1202CFD002C0027AFF1202CFD03E
:1014900002C0E0740114120355D0E0C083C082C0C2
:1014A000E0900451120348D0E0D082D083C0E074B1
:1014B0000114120353D0E0C083C082C0E0900462E4
:1014C000120348D0E0D082D083021446C0E07401F9
:1014D00014120355D0E0C083C082C0E09004B7125C
:1014E0000348D0E0D082D0831207D2C0027AFF1224
:1014F00002CFD002C0E0740214120355D0E0C083C2
:10150000C082C0E09004B9120348D0E0D082D083FA
:10151000C0027AFF1202CFD002C0E074031412039B
:1015200055D0E0C083C082C0E09004BB120348D015
:10153000E0D082D08312086AC0027AFF1202CFD0B4
:1015400002C0E0740414120355D0E0C083C082C00E
:10155000E09004BD120348D0E0D082D083C0027A6C
:10156000FF1202CFD002C0E0740514120355D0E080
:10157000C083C082C0E09004BF120348D0E0D08294
:10158000D0831207A012086A1207A0C0027A96122E
:1015900002CFD00212086AC0027A141202CFD0021F
:1015A000C0E0740614120355D0E0C083C082C0E0CE
:1015B0009004C1120348D0E0D082D0831207A0C0AB
:1015C000027A961202CFD00212086AC0027A14126E
:1015D00002CFD002C0E0740714120355D0E0C083DC
:1015E000C082C0E09004B9120348D0E0D082D0831A
:1015F0001207A0C0027A961202CFD00212086AC067
:10160000027A141202CFD002C0E0740914120355FA
:10161000D0E0C083C082C0E09004C3120348D0E091
:10162000D082D083C0027AFF1202CFD002C0E07411
:101630000A14120355D0E0C083C082C0E09004BFFA
:10164000120348D0E0D082D083C0027AFF1202CFCA
:10165000D002C0E0740114120353D0E0C083C082F2
:10166000C0E09004C5120348D0E0D082D083C0020D
:101670007AFF1202CFD002C0E0740214120353D0DA
:10168000E0C083C082C0E09004BB120348D0E0D029
:1016900082D0831207EBC0027A961202CFD002C02A
:1016A000E0740314120353D0E0C083C082C0E09002
:1016B00004C7120348D0E0D082D08312086AC00267
:1016C0007A141202CFD0021207EBC0027A961202ED
:1016D000CFD002C0E0740414120353D0E0C083C022
:1016E00082C0E09004C9120348D0E0D082D08312B7
:1016F000086AC0027A141202CFD0021207EBC002AD
:101700007A961202CFD002C0E0740514120353D0AF
:10171000E0C083C082C0E09004CD120348D0E0D086
:1017200082D08312086AC0027A141202CFD002C09B
:10173000027AFF1202CFD002C0E0740614120353E3
:10174000D0E0C083C082C0E09004C7120348D0E05C
:10175000D082D083C0027AFF1202CFD002C0E074E0
:101760000714120353D0E0C083C082C0E09004CDC0
:10177000120348D0E0D082D083C0027AFF1202CF99
:10178000D002C0E0740814120353D0E0C083C082BA
:10179000C0E09004CB120348D0E0D082D083C002D6
:1017A0007AFF1202CFD002C0E0740914120353D0A2
:1017B000E0C083C082C0E09004BF120348D0E0D0F4
:1017C00082D083C0027AFF1202CFD002C0E0740A36
:1017D00014120353D0E0C083C082C0E09004BF1253
:1017E0000348D0E0D082D083C0027AFF1202CFD06B
:1017F00002120804C0027A821202CFD0021207D26B
:10180000C0027A821202CFD0021207A0C0027A82EE
:101810001202CFD002120787C0027A821202CFD002
:10182000021207EBC0027A821202CFD0021207879F
:10183000C0027A501202CFD0021207EBC0027A82A5
:101840001202CFD0021207B9C0027A821202CFD0A0
:101850000212086AC0027AFF1202CFD00222C083AD
:10186000C082C0E0900473120348D0E0D082D083DD
:10187000C0E0740114120355D0E0C083C082C0E000
:101880009004B7120348D0E0D082D083C0027AFF20
:101890001202CFD002C0027A961202CFD00230A03C
:1018A0000630A25A021895C0E0740114120355D0F4
:1018B000E0C083C082C0E0900473120348D0E0D03F
:1018C00082D083C0E0740114120353D0E0C083C0FF
:1018D00082C0E0900473120348D0E0D082D083C06D
:1018E000E0740114120355D0E0C083C082C0E090C0
:1018F0000370120348D0E0D082D083020EECC0E027
:10190000740114120355D0E0C083C082C0E090047B
:1019100073120348D0E0D082D083C0E07401141267
:101920000353D0E0C083C082C0E090047312034828
:10193000D0E0D082D083C0E0740114120355D0E00F
:10194000C083C082C0E09004A6120348D0E0D082D9
:10195000D08302195512098C120838120D5712093A
:101960008C12085112098C120E8E12098C12083832
:10197000021955120642C0027AC81202CFD00212D2
:101980000674C0027AC81202CFD0021205F7C00254
:101990007AC81202CFD002120642C0027AC81202DE
:1019A000CFD002C0027AC81202CFD002120674C091
:1019B000027AC81202CFD0021205F7C0027AC8120A
:1019C00002CFD002120674C0027AC81202CFD0022F
:1019D000120642C0027AC81202CFD002120674C0A8
:1019E000027AC81202CFD0021205F7C0027AC812DA
:1019F00002CFD002120642C0027AC81202CFD00231
:101A0000C0027AC81202CFD0021205ACC0027AC856
:101A10001202CFD002C0027AC81202CFD002120640
:101A200042C0027AC81202CFD002C0027AC81202A3
:101A3000CFD002120674C0027AC81202CFD00212AE
:101A400005C5C0027AC81202CFD002120642C002F7
:101A50007AC81202CFD002C0027AC81202CFD002D6
:101A6000120642C0027AC81202CFD002C0027AC85F
:101A70001202CFD002120610C0027AC81202CFD0D2
:101A8000021205F7C0027AC81202CFD00212061065
:101A9000C0027AC81202CFD002120642C0027AC82F
:101AA0001202CFD002120674C0027AC81202CFD03E
:101AB000021206A6C0027AC81202CFD0021206BFD6
:101AC000C0027AC81202CFD002120674C0027AC8CD
:101AD0001202CFD0021206BFC0027AC81202CFD0C3
:101AE000021206A6C0027AC81202CFD002C0027A41
:101AF000641202CFD0021206BFC0027A641202CF73
:101B0000D0021206F1C0027A641202CFD00212088B
:101B10006AC0027A641202CFD002120642C0027A70
:101B2000C81202CFD002C0027AC81202CFD002C0BF
:101B3000027A641202CFD002120610C0027AC812D2
:101B400002CFD002C0027AC81202CFD002120642DF
:101B5000C0027AC81202CFD002120674C0027AC83C
:101B60001202CFD0021205F7C0027AC81202CFD0FB
:101B700002120642C0027AC81202CFD002C0027A14
:101B8000C81202CFD002120642C0027AC81202CF97
:101B9000D002C0027AC81202CFD002C0027AC812A4
:101BA00002CFD0021206A6C0027AC81202CFD0021B
:101BB0001206D8C0027AC81202CFD002120642C062
:101BC000027AC81202CFD0021206A6C0027AC81248
:101BD00002CFD002C0027AC81202CFD0021206A6EB
:101BE000C0027AC81202CFD0021206A6C0027AC87A
:101BF0001202CFD0021206A6C0027AC81202CFD0BB
:101C0000021206A6C0027AC81202CFD0021206D86B
:101C1000C0027AC81202CFD002120674C0027A64DF
:101C20001202CFD0021206A6C0027AC81202CFD08A
:101C30000212065BC0027AC81202CFD002120674EA
:101C4000C0027AC81202CFD002120629C0027AC896
:101C50001202CFD002120642C0027AC81202CFD0BE
:101C6000021205F7C0027AC81202CFD002C0027A6F
:101C7000641202CFD0021205DEC0027A641202CFD3
:101C8000D0021205F7C0027A641202CFD002120805
:101C90006AC0027A641202CFD002120642C0027AEF
:101CA000C81202CFD002C0027AC81202CFD002C03E
:101CB000027AC81202CFD0021204FDC0027A461284
:101CC00002CFD002120516C0027A501202CFD00203
:101CD000120548C0027A5A1202CFD002120561C022
:101CE000027A641202CFD00212057AC0027A64121C
:101CF00002CFD002120593C0027A641202CFD00242
:101D0000120642C0027AC81202CFD002C0027AC8BC
:101D10001202CFD002120674C0027AC81202CFD0CB
:101D200002C0027AC81202CFD0021205F7C0027AAE
:101D3000C81202CFD002C0027AC81202CFD002125B
:101D40000642C0027AC81202CFD002C0027AC8127C
:101D500002CFD002C0027AC81202CFD002C0027AEB
:101D6000C81202CFD002C0027AC81202CFD002C07D
:101D7000027AC81202CFD002C0027AC81202CFD0B3
:101D800002C0027AC81202CFD00212086AC0027AD8
:101D9000C81202CFD002C0027AC81202CFD00212FB
:101DA0000610C0027AC81202CFD002C0027AC8124E
:101DB00002CFD002120642C0027AC81202CFD0026D
:101DC000C0027AC81202CFD0021205C5C0027AC87A
:101DD0001202CFD002C0027AC81202CFD00212057E
:101DE000F7C0027AC81202CFD002C0027AC812022B
:101DF000CFD002C0027AC81202CFD002C0027AC885
:101E00001202CFD002120629C0027AC81202CFD025
:101E100002C0027AC81202CFD002120642C0027A71
:101E2000C81202CFD002C0027AC81202CFD002C0BC
:101E3000027AC81202CFD002C0027AC81202CFD0F2
:101E4000021205C5C0027AC81202CFD002C0027ABF
:101E5000C81202CFD002C0027AC81202CFD002C08C
:101E6000027AC81202CFD002C0027AC81202CFD0C2
:101E700002C0027AC81202CFD002C0027AC812028F
:101E8000CFD002C0027AC81202CFD002120593C08E
:101E9000027AC81202CFD002C0027AC81202CFD092
:101EA00002C0027AC81202CFD002C0027AC812025F
:101EB000CFD002C0027AC81202CFD002C0027AC8C4
:101EC0001202CFD002C0027AC81202CFD002C002E2
:081ED0007AC81202CFD00222F1
:00000001FF
