:03000000020445B2
:03000B00020439B3
:03002B000203DFEE
:10002E00C0E0C0D0C000C001C002E4F53CF53DF513
:10003E003EF53FF5407A20E533A2E779047830E6C5
:10004E0033F608D9FA7905783CE636D4F608D9F9AC
:10005E00DAE5D002D001D000D0D0D0E022C0E0C08E
:10006E00D0C000C001C002E4F53CF53DF53EF53FC1
:10007E00F5407A20E533A2E779047830E633F608C6
:10008E00D9FA7905783CC0D0E6243320E70224D093
:10009E0020E30224FDD0D033F608D9EADAD6D00216
:1000AE00D001D000D0D0D0E022C0E0C0D0C000C07F
:1000BE0001C0027A207905C37840E613C0D030E73C
:1000CE000224D030E30224FDF618D0D0D9EC790406
:1000DE007833E613F618D9FADADBD002D001D00065
:1000EE00D0D0D0E022C0E0C0D0E5302534F530E5E8
:1000FE00313535F531E5323536F532E5333537F50F
:10010E0033D0D0D0E022C0E0C0D0C3E5309534F576
:10011E0030E5319535F531E5329536F532E53395E5
:10012E0037F533D0D0D0E022C0E0C0D0C3E5309553
:10013E0034E5319535E5329536E53395379200D075
:10014E00D0D0E022C0E0C0D0C3E5349530E535957F
:10015E0031E5369532E53795339200D0D0D0E02296
:10016E00C0E0C0D0C200C3E53495307014E53595BB
:10017E0031700EE53695327008E53795337002D240
:10018E0000D0D0D0E02212016E20000302015222D4
:10019E0012016E20000302013622C0E0C0F0C0D072
:1001AE00C000C001C002C003E5308534F0A4F8A938
:1001BE00F0E5318534F0A429F9E435F0FAE530851F
:1001CE0035F0A429F9E5F03AFAE433FBE53285344B
:1001DE00F0A42AFAE5F03BFBE5318535F0A42AFAC6
:1001EE00E5F03BFBE5308536F0A42AFAE5F03BFB63
:1001FE00E5338534F0A42BFBE5328535F0A42BFBDB
:10020E00E5318536F0A42BFBE5308537F0A42BFBCA
:10021E008B338A3289318830D003D002D001D0009E
:10022E00D0D0D0F0D0E022C0E0C0D0C000C001C01D
:10023E0002C003C0047C20E4F8F9FAFBC3E53033B6
:10024E00F530E53133F531E53233F532E53333F55B
:10025E0033E833F8E933F9EA33FAEB33FBC3E895C5
:10026E0034E99535EA9536EB95374013E89534F831
:10027E00E99535F9EA9536FAEB9537FB433001DC13
:10028E00BBD004D003D002D001D000D0D0D0E02219
:10029E0085303485313585323685333722E530C5A4
:1002AE0034F530E531C535F531E532C536F532E593
:0602BE0033C537F53322C1
:1002C400C00078B10000D8FCD00022C000C0017981
:1002D4002D78A6D8FED9FADAF6D001D00022D2B30E
:1002E4001202C4C2B322A2E792B7A2E692B6A2E572
:1002F40092B5A2E492B41202E21202C4A2E392B74B
:10030400A2E292B6A2E192B5A2E092B41202E22273
:10031400D2B20202EAC2B20202EAC2B374331203D4
:10032400197433120319743212031974281203193D
:10033400740C1203197401120319C0027A02120216
:10034400CFD00222E4936006120314A380F6224461
:10035400404480020319C0E0E8C4540F443012033F
:0C03640014E8540F4430120314D0E022BF
:10037000503120202020202020202020503200300A
:10038000302020202020202020202020303000502D
:100390006C6179657220313A2000506C6179657228
:1003A00020323A2000C000A84012035AD000C000FA
:1003B000A83F12035AD000C000A83E12035AD00032
:1003C000C000A83D12035AD000C000A83C12035A36
:1003D000D0002275C80075CB0075CA00D2AD22C20C
:1003E000CFC0E00541E54170020542D0E032E58929
:1003F00054F04401F589758CA9758A9A75F4A9752C
:10040000F29AD2A9D28C22E58954F04401F589757B
:100410008CEA758AE875F4EA75F2E8D2A9D28C22E2
:10042000E58954F04401F589758CFE758AAF75F441
:10043000FE75F2AFD2A9D28C22B291321203D3123E
:10044000031ED2AF2275817F12043CD28075470013
:10045000754800C0E0740114120355D0E0C083C099
:1004600082C0E0900370120348D0E0D082D08312A3
:1004700003EE1203D385CD4375440175458785CCC2
:1004800046120659C2CA75CC0075CD00754100757B
:100490004200C2CFD2CA1204A61204B01204CC1277
:1004A00004D512050122E54254FE70362080F72261
:1004B000E54254FE702C3080F7C2CA75CC0075CD71
:1004C00000754100754200C2CFD2CA22E54254FEF7
:1004D00070102080F7E54254FE70073080F7C2CAE2
:1004E000801FC0E0740114120353D0E0C083C082A7
:1004F000C0E090037F120348D0E0D082D083020492
:1005000084E5CC45CD4541454260D712067722129D
:100510000484753440753554753689753700120179
:100520005220000122C200E4C0E0740114120353FF
:10053000D0E0E5472401D4F547C000A84712035A8C
:10054000D0000206A2020484120484C0E0740114E4
:10055000120353D0E0C000A84712035AD0007534EC
:1005600040753554753689753700120152200001E7
:1005700022C200E5472499D4F547C0E07401141263
:100580000353D0E0C000A84712035AD0000206A2CD
:100590008543308544318545328546337534FD7554
:1005A00035437536037537001201A87534C37535A8
:1005B0009E7536267537001200F385304385314429
:1005C00085324585334622120590C002AA431202A5
:1005D000CFD002120548C002AA441202CFD00212A4
:1005E0000548C002AA451202CFD002120548C00237
:1005F000AA461202CFD00212054822C0027AFF1288
:1006000002CFD00212050FC0027AFF1202CFD00231
:1006100012050FC0027AFF1202CFD00212050FC0DE
:10062000027AFF1202CFD00212050FC0027AFF1227
:1006300002CFD00212050FC0027AFF1202CFD00201
:1006400012050FC0027AFF1202CFD00212050FC0AE
:10065000027AFF1202CFD002221204841203EE1299
:1006600005C71204841204071204841205FB120445
:10067000841203EE02065985CC3085CD3185413296
:1006800085423375342D7535007536007537001287
:1006900001A875340A7535007536007537001201EA
:1006A000A822120420C0027AFF1202CFD002C00298
:1006B0007AFF1202CFD002C0027AFF1202CFD0021C
:1006C000C0027AFF1202CFD002C0027AFF1202CF1C
:1006D000D002C0027AFF1202CFD002C0027AFF120B
:1006E00002CFD002C0027AFF1202CFD00202065916
:00000001FF
